:020000040000FA
:020000003328A3
:080008000C1C2528A5003C306A
:100010008F00B0308E000930200203191128A00A89
:100020002528A0010930210203191828A10A252832
:10003000A1010930220203191F28A20A2528A201C2
:100040000A3024020319A401A40A25080C1009008F
:1000500082073F3406345B344F3466346D347D346C
:1000600007347F346F34A001A101A201A4018316DB
:100070000030850088010C1483123C308F00B030B2
:100080008E0031309000C0308B00051020082820F1
:100090008800051485102108282088008514051182
:1000A00022082820880005158511240828208800AA
:0400B0008515452845
:00000001FF
