:020000040000FA
:060000008A110A124B29CF
:080008004A2982074D346534DA
:1000100072346834613462346134203400344434DE
:1000200055344E345934413421342E342E34003476
:100030004834453458343A34003444344534433435
:100040003A3400340F39A3000608F039230486003F
:1000500083120313861614303E218612FF303E2190
:100060000800A200220E8312031306122220220887
:1000700083120313061222200800303EA200220E33
:100080008312031306162220220883120313061676
:1000900022200800A4009F3C031C5228240E0F3984
:1000A0003D205628240E0F39373E3E2024080F39B4
:1000B000A400093C031C5F2824083D2008002408F4
:1000C000373E3E200800A4000030A41F3D20013030
:1000D000A41B3D200030241F3D200130241B3D2067
:1000E0000030A41E3D200130A41A3D200030241E03
:1000F0003D200130241A3D200030A41D3D20013058
:10010000A4193D200030241D3D20013024193D203C
:100110000030A41C3D200130A4183D200030241CD8
:100120003D20013024183D200800013031200530E9
:100130002E2108000F30312008000C30312008003B
:1001400083160608F03986008612061206138312FB
:10015000860132302E21831203130612033022202F
:1001600005302E2183120313861614303E21861289
:10017000FF303E2183120313861614303E2186126F
:10018000FF303E2183120313061202302220FF307B
:100190003E2128303120103031200130312005300F
:1001A0002E21063031200C30312008008400040854
:1001B000840A05200038031908003E20D728803023
:1001C000A508031DC030260731200800A901AA0197
:1001D000AB01AC0104302702031CF628A90A043045
:1001E000A7021830A8070318A70AEA280130270237
:1001F000031C09290230AA070130A7023830A807DA
:100200000318A70A0A302A02031DF628AA01A90A20
:10021000F62864302802031C1729AA0A6430A802B1
:100220000A302A02031D0929AA01A90A09290A304C
:100230002802031C1F29AB0A0A30A8021729280824
:10024000AC000800AD00FA302E21FA302E21FA3031
:100250002E21FA302E21AD0B23290800AE008E305E
:10026000AF00000000000000000000000000AF0B25
:1002700033290000AE0B2F2900000800AE00AE0CA1
:10028000AE0C3F30AE050330AE020000AE0B452988
:10029000000008000900A02095209D20A001A101D8
:1002A0000030A5000030A600DF200030D62001304D
:1002B000A5000030A600DF200930D6200A30222118
:1002C00095200030A5000030A600DF201230D62097
:1002D00020084A2021084A200130A5000030A6004D
:1002E000DF201730D6202008A7002108A800E6202C
:1002F00029083D202A083D202B083D202C083D20C0
:10030000013022210130A5000030A600DF202108A5
:100310006320A10A0319A00A27302002031D952992
:1003200010302102031D95294C290130222160291A
:02400E00313F40
:00000001FF
