:020000040000FA
:060000008A110A125428C7
:080008002E28E0308800081CDE
:100010000034881C0134081D0234881D0334D0309C
:100020008800081C0434881C0534081D0634881D0B
:100030000734B0308800081C0834881C0934081DB7
:100040000A34881D0B3470308800081C0C34881C5E
:100050000D34081D0E34881D0F34FF34A000A00E8F
:10006000030EA100040EA2000A0EA3008B1E4B2853
:100070000B1D4B28063081002914A70A0A302702DD
:10008000031D4B28A701A914A80A64302802031CE9
:100090004B28A80129150B11230E8A00220E84007B
:1000A000210E8300200E0900D13062008316031355
:1000B000860189010F308800831203138601A40191
:1000C000A501A701A901AA01063081008B168B1793
:1000D000291D6828A91C73280520A500FF3C0319C9
:1000E00073282A14A9102A1C6A28250886002A10B9
:0200F0006A287C
:02400E00313F40
:00000001FF
