:020000040000FA
:100000008A01B528831603139401941731309300A5
:1000100091019830870028308312940087010800EE
:10002000831203138C1183161114111815288312CF
:1000300003138C1D19288C1108000000000000001B
:10004000000000008316031391149118252808005E
:10005000831203138C117208930008008316031394
:10006000911591193128831203138C1D35288C1199
:100070001308080083160313111511193D28831264
:1000800003138C1D41288C11080083160313911251
:100090001117111B4928831203138C1D4D288C1135
:1000A0000800831603139116111B5428111683128E
:1000B0008C1183160313111A5928831203138C1DF4
:1000C0005F288C1108001020730DFE39A038F20053
:1000D000282045207408F200282045207508F200E9
:1000E000282045207608F200282045203A200800E4
:1000F0001020730DFE39A038F20028204520740826
:10010000F200282045207508F200282045201D20F7
:10011000730DFE39A138F200282045202E20F6006C
:1001200051203A200800B930F10000000000000022
:1001300000000000000000000000000000000000BF
:1001400000000000000000000000000000000000AF
:10015000000000000000000000000000F10B9628E5
:100160000000F00B932800000800063083160313EC
:100170009F008500860183120313083085008601E5
:1001800002208518CD28F301F4011A30F5007820FB
:1001900086000A30F0009320DB280519C12885115C
:1001A000F301F4011A30F500C930F600632085151B
:0801B0000A30F0009320DB2867
:02400E003A3F37
:00000001FF
