:020000040000FA
:100000008A01A428831603139401941731309300B6
:1000100091019830870028308312940087010800EE
:10002000831203138C1183161114111815288312CF
:1000300003138C1D19288C1108000000000000001B
:10004000000000008316031391149118252808005E
:10005000831203138C117208930083160313141C6C
:100060002F2883120800831603139115911936283F
:10007000831203138C1D3A288C1113080800831671
:100080000313111511194228831203138C1D4628DE
:100090008C1108008316031391121117111B4E289F
:1000A000831203138C1D52288C110800831603132E
:1000B0009116111B5928111683128C1183160313E4
:1000C000111A5E28831203138C1D64288C110800FA
:1000D00010204230F20028204A207308F200282025
:1000E0004A203F20080010204030F20028204A20FB
:1000F0001D204130F20028204A203320F4005620F1
:100100003F200800B930F1000000000000000000AE
:1001100000000000000000000000000000000000DF
:1001200000000000000000000000000000000000CF
:1001300000000000000000000000F10B8528000016
:10014000F00B822800000800022073207408F300DE
:0A01500068200A30F0008220A52884
:02400E003A3F37
:00000001FF
