:020000040000FA
:060000008A110A123128EA
:080008008312031386150000AA
:1000100086110610000006140830A200A30D861CED
:100020001328231414282310061500000611A20B10
:100030000E2808008E30A100000000000000000023
:1000400000000000A10B1E280000A00B1A280000D1
:1000500008001430A200FA30A0001A20A20B2B28AE
:1000600008008316031302308600831203138601EF
:1000700004202308F03986002920230EF039860059
:0400800029203828D3
:02400E00313F40
:00000001FF
