:020000040000FA
:020000000628D0
:0800080005280900831603130B
:100010008601870106309F00FF308500831203139D
:1000200086018701A001A10107309C008312031300
:10003000051D6D20851816284E20831203132308F2
:10004000860022088700851C2328A00A1628831210
:1000500003132008831203178D0083120313210852
:10006000831203178F0083120313220883120317CE
:100070008C00831203132308831203178E00831648
:1000800003178C170C158B1355308D00AA308D007B
:100090008C14000000008B170C110800831203134E
:1000A0002008831203178D00831203132108831283
:1000B00003178F00831603178C170C140000000021
:1000C000831203170C0883120313A2008312031771
:1000D0000E0883120313A300080083120313A00168
:1000E000A101A201A301272083120313A00F7328EB
:0200F000080006
:02400E00323B43
:00000001FF
