:020000040000FA
:10000000012805201C204620022807309F00831667
:10001000F030850000308600093083160313990004
:1000200083160313181698170C16181398168312B4
:10003000031398129817080001308500051A003440
:10004000851A0434051B0834851B0C3402308500E6
:10005000051A0134851A0534051B0934851B0D3436
:1000600004308500051A0234851A0634051B0A344B
:10007000851B0E3408308500051A0334851A0734B1
:10008000051B0B34851B0F34FF340800A00021082A
:100090002006031908002008831203139900831215
:0E00A00003130C1E51280C122008A1000800AA
:02400E00503F21
:00000001FF
