:020000040000FA
:10000000031383168601831238207820053045308B
:10001000C0007230C1006B30C2006130C3006E306E
:10002000C4002030C5002030C6002030C700443056
:10003000C8007530C9006D30CA006130CB006E3029
:10004000CC002030CD002030CE002030CF003F301B
:100050008400840A000884192F2859202928840341
:1000600069204730840A00085920041E32283728A6
:10007000033086007B207E20023086007B207E209D
:1000800028304B2008304B2001304B2006304B20CD
:100090000C304B200800B300330E0F3986000612D7
:1000A0007B2033080F39860006127B207E20080053
:1000B000303EB300330E0F39860006167B2033081E
:1000C0000F39860006167B207E20080080304B20EA
:1000D0000800C0304B200800803E4B200800C03E86
:1000E0004B2008000D304B2008000C304B2008003E
:1000F00001304B200800861686120800B40B8128B8
:080100000800B50B81287E28E0
:04010800003400348B
:00000001FF
