:020000040000FA
:020000002D28A9
:0800080005288B1C09008B1078
:100010008312031301308500831203132308172072
:1000200088008800242083120313A30A0900820792
:1000300000003F3406345B344F3466346D347D3415
:1000400007347F34A3016734FF30A400FF30A500DC
:10005000A50B2828A40B2628080083160313850166
:1000600083120313850183160313FF308600831266
:100070000313860183160313880183120313880177
:100080008312031390308B0083120313A3014728BC
:00000001FF
