:020000040000FA
:10000000012883160313860187010F3088008312AD
:100010000313C1309F008316031388309F0083169B
:100020000313FF30850083120313860185018801C5
:1000300008163030A7003030A8000230AF2028303A
:10004000AF200C30AF208030AF20831203131F1578
:10005000D1201F192928831603131E088312A60016
:100060000818352888183F28482839302702031CEB
:10007000A70A031C4828A80A3030A70048283130B6
:1000800027020318A70303184828A8033930A7003C
:1000900087200230AF205330BB204930BB20433093
:1000A000BB204130BB204B30BB204C30BB20493003
:1000B000BB204B30BB203A30BB202508BB20240896
:1000C000BB202308BB202030BB20DF30BB204330C7
:1000D000BB20CE200630AF20C8204830BB204530A2
:1000E000BB204430BB204530BB204630BB203A30DB
:1000F000BB202808BB202708BB202030BB20DF30D6
:10010000BB204330BB202030BB20CE202528A501BA
:10011000A401A30186012608831203138700A60009
:1001200064302602031C9728A600A50A90280A30EE
:100130002602031C9E28A600A40A97282608A300CE
:100140003030A504A404A304270823020319AA2815
:100150000816080028082402031908120800A20043
:10016000220EB5202208B520080086000612861649
:10017000D12086120800A200220EC1202208C12030
:1001800008008F05860006168616D1208612080004
:10019000C030AF201430AF2014300800FF30A00072
:1001A000D3280430A0008F30A100A10BD528A00BCC
:0401B000D328080048
:00000001FF
