:020000040000FA
:020000001228C4
:080008008C1C0F288C1019302C
:10001000250203190D28A50A0F28A501A00A8C1096
:100020000A30090083160313C0308B008C1485013D
:100030008801FA3092008312031317309200FA30CD
:10004000A40085018801A001A101A201A301A501CD
:10005000712805142008662088000A302002031940
:1000600051200510080085142108662088000A30F8
:10007000210203195428851008000515220866205E
:1000800088000A3022020319572805110800851537
:100090002308662088000A30230203195A28851194
:1000A0000800A001A10A0800A101A20A0800A201FB
:1000B000A30A0800A301A001A101A20108000000F9
:1000C0000000A40B5F28FA30A400080082073F3428
:1000D00006345B344F3466346D347D3407347F34FA
:1000E0006F3429205F2033205F203D205F20472090
:0400F0005F207128F4
:02400E00313F40
:00000001FF
