:020000040000FA
:020000002F28A7
:0800080005280B1C09000B1078
:10001000061E0D28861E172809000B1083120313D5
:100020000030A500831203130130A60009000B1055
:10003000831203130230A500831203130330A600BA
:10004000090082074F345B343F346634FF30A3002D
:10005000FF30A400A40B2A28A30B2828080083162D
:1000600003138501831203130030850083160313E5
:10007000FF30860083120313860183160313880161
:1000800083120313880183120313C8308B00831675
:1000900003130030810083120313A301A40106306F
:1000A000A600A500831203130130850083120313F9
:1000B00025082120831203138800880088018312F9
:1000C00003130230850083120313260821208312B4
:0A00D00003138800880088015228FD
:00000001FF
