:020000040000FA
:020000001028C6
:08000800090082073F340634B1
:100010005B344F3466346D347D3407347F346F3451
:1000200083160313850183120313850101308500B4
:1000300083160313880183120313880183120313A9
:10004000A3010930A300831203130130850083123A
:10005000031323080520880088003B20A30B2328D6
:10006000831203132308052088003B208312031307
:100070000930A3002328FF30A400FF30A500A50B02
:080080003F28A40B3D280800F5
:00000001FF
