:020000040000FA
:020000000528D1
:040002000034003492
:0800080009008316880185013F
:10001000831285018801A001A101A301A401A5010A
:10002000A201222083120313A100222083120313B2
:10003000A300222083120313A4002220831203139F
:10004000A5003228A00A2008831203178D0083160A
:1000500003170C14831203132019A0018312031732
:100060000C08080083120130850021088800482010
:1000700002308500230888004820043085002408C9
:10008000880048200830850025088800482032284C
:10009000FA30A20000000000000000000000000094
:1000A000A20B4A28FA30A200000000000000000065
:0800B0000000A20B5428080017
:00000001FF
