:020000040000FA
:020000000528D1
:0800080009008316880185013F
:10001000831285018801A001A101A301A401A5010A
:10002000A201222083120313A100222083120313B2
:10003000A300222083120313A4002220831203139F
:10004000A5003228A00A2008831203178D0083160A
:1000500003170C14831203132019A0018312031732
:100060000C080800831201308500210860208800F8
:100070004C20023085002308602088004C2004308A
:1000800085002408602088004C2008308500250861
:10009000602088004C203228FA30A20000000000C6
:1000A0000000000000000000A20B4E28FA30A20061
:1000B00000000000000000000000A20B582808000B
:1000C00082073F3406345B344F3466346D347D34FC
:0600D00007347F346F3499
:00000001FF
