:020000040000FA
:020000002A28AC
:080008000C1C09000C10A30AF6
:1000100023080A3A031D0900A30183120313A40A4B
:1000200024080A3A031D0900A40109003230A50082
:100030003230A600A60B1A28A50B18280800820744
:100040003F3406345B344F3466346D347D340734CA
:100050007F346F3483120313A301A401A501A60109
:1000600083160313850183160313880106309F004E
:100070008312031303308500831203138801831254
:10008000031331309000831603130C1483120313EF
:10009000C0308B0016200130850023081F20880007
:1000A0001620831203130230850024081F208800C5
:0200B0004A28DC
:00000001FF
