:020000040000FA
:020000004B288B
:040002000034003492
:080008000B1C49280B10061A1D
:100010001028861A1B28061B2628861B31284928EB
:100020000B10200A3C20A400A00A0B302002031D64
:100030004928A00110280B10210A3C20A500A10A84
:100040000B302102031D4928A1011B280B10220A95
:100050003C20A600A20A0B302202031D4928A2015F
:1000600026280B10230A3C20A700A30A0B302302EA
:10007000031D4928A301312882073F343F34063449
:100080005B344F3466346D34FD3407347F346F3461
:100090006F340B1009008316C8308B00811788015C
:1000A0008501F03086008312FF3088000030850023
:1000B0008601A001A101A201A301A401A501A6013D
:1000C000A7010000000000000000013085002408A6
:1000D00088000000000000000000083085002708AC
:1000E00088000000000000000000043085002608A1
:1000F0008800000000000000000002308500250894
:0C010000880000000000000000006128E2
:00000001FF
