:020000040000FA
:020000003628A0
:080008008B1C09008B10A20AF9
:100010000A3A031D831203130130850022082B20A6
:10002000880058200728A20183120313013085009D
:1000300022082B2088005820A50A0A3A031D8312A3
:1000400003130230850025082B208800582007283C
:10005000A501A201090082073F3406345B344F3406
:1000600066346D347D3407347F346F348316031364
:10007000850183120313033085008316031388015F
:1000800083120313880183160313FF308600831243
:10009000031386018312031390308B00831603131E
:1000A000810183120313A201A301A401A501572812
:1000B000FF30A300FF30A400A40B5C28A30B5A2838
:0200C000080036
:00000001FF
