:020000040000FA
:1000000003138316860183128A2039208520053048
:100010004530C0007230C1006B30C2006130C30097
:100020006E30C4002030C5002030C6002030C7002C
:100030004430C8007530C9006D30CA006130CB0053
:100040006E30CC002030CD002030CE002030CF00EC
:100050003F308400840A00088419302866202A284A
:10006000840376204730840A00086620041E332863
:1000700038288A2003308600861686128C20861641
:1000800086129220922086168612922092200230AA
:10009000860086168612922092202830582008303A
:1000A000582001305820063058200C3058200800C5
:1000B000B300330E0F39860006129D2033080F3926
:1000C000860006129D2090200800303EB300330EBB
:1000D0000F39860006169D2033080F398600061654
:1000E0009D2090200800803058200800C030582003
:1000F0000800803E58200800C03E582008000D30FF
:10010000582008000C305820080001305820080002
:10011000FF30912864309128323091281430912892
:100120000530B400C730B5000130B600B50B9928D2
:10013000B60B9628B40B9228080086168612080083
:1001400082074D346534723468346134623461340A
:1001500000348207443475346E34793461342E347B
:060160002E342E340034A1
:04016600003400342D
:00000001FF
